{
  "_format": "hh-sol-artifact-1",
  "contractName": "AIEscrowMarketplace",
  "sourceName": "contracts/AIEscrowMarketplace.sol",
  "abi": [
    {
      "inputs": [
        {
          "internalType": "address",
          "name": "_initialAiAgentAddress",
          "type": "address"
        }
      ],
      "stateMutability": "nonpayable",
      "type": "constructor"
    },
    {
      "inputs": [
        {
          "internalType": "address",
          "name": "owner",
          "type": "address"
        }
      ],
      "name": "OwnableInvalidOwner",
      "type": "error"
    },
    {
      "inputs": [
        {
          "internalType": "address",
          "name": "account",
          "type": "address"
        }
      ],
      "name": "OwnableUnauthorizedAccount",
      "type": "error"
    },
    {
      "inputs": [],
      "name": "ReentrancyGuardReentrantCall",
      "type": "error"
    },
    {
      "anonymous": false,
      "inputs": [
        {
          "indexed": true,
          "internalType": "address",
          "name": "newAddress",
          "type": "address"
        }
      ],
      "name": "AiAgentAddressUpdated",
      "type": "event"
    },
    {
      "anonymous": false,
      "inputs": [
        {
          "indexed": true,
          "internalType": "uint256",
          "name": "jobId",
          "type": "uint256"
        },
        {
          "indexed": true,
          "internalType": "uint256",
          "name": "bidId",
          "type": "uint256"
        },
        {
          "indexed": false,
          "internalType": "address",
          "name": "client",
          "type": "address"
        },
        {
          "indexed": false,
          "internalType": "address",
          "name": "freelancer",
          "type": "address"
        }
      ],
      "name": "BidAccepted",
      "type": "event"
    },
    {
      "anonymous": false,
      "inputs": [
        {
          "indexed": true,
          "internalType": "uint256",
          "name": "jobId",
          "type": "uint256"
        },
        {
          "indexed": true,
          "internalType": "uint256",
          "name": "bidId",
          "type": "uint256"
        },
        {
          "indexed": true,
          "internalType": "address",
          "name": "freelancer",
          "type": "address"
        },
        {
          "indexed": false,
          "internalType": "string",
          "name": "proposalText",
          "type": "string"
        }
      ],
      "name": "BidSubmitted",
      "type": "event"
    },
    {
      "anonymous": false,
      "inputs": [
        {
          "indexed": true,
          "internalType": "uint256",
          "name": "jobId",
          "type": "uint256"
        },
        {
          "indexed": false,
          "internalType": "bool",
          "name": "releaseToFreelancer",
          "type": "bool"
        }
      ],
      "name": "DisputeResolved",
      "type": "event"
    },
    {
      "anonymous": false,
      "inputs": [
        {
          "indexed": true,
          "internalType": "uint256",
          "name": "jobId",
          "type": "uint256"
        },
        {
          "indexed": false,
          "internalType": "uint256",
          "name": "price",
          "type": "uint256"
        }
      ],
      "name": "FundsDeposited",
      "type": "event"
    },
    {
      "anonymous": false,
      "inputs": [
        {
          "indexed": true,
          "internalType": "uint256",
          "name": "jobId",
          "type": "uint256"
        },
        {
          "indexed": true,
          "internalType": "address",
          "name": "recipient",
          "type": "address"
        },
        {
          "indexed": false,
          "internalType": "uint256",
          "name": "price",
          "type": "uint256"
        }
      ],
      "name": "FundsReleased",
      "type": "event"
    },
    {
      "anonymous": false,
      "inputs": [
        {
          "indexed": true,
          "internalType": "uint256",
          "name": "jobId",
          "type": "uint256"
        },
        {
          "indexed": true,
          "internalType": "address",
          "name": "client",
          "type": "address"
        },
        {
          "indexed": false,
          "internalType": "string",
          "name": "reason",
          "type": "string"
        }
      ],
      "name": "JobDisputed",
      "type": "event"
    },
    {
      "anonymous": false,
      "inputs": [
        {
          "indexed": true,
          "internalType": "uint256",
          "name": "jobId",
          "type": "uint256"
        },
        {
          "indexed": true,
          "internalType": "address",
          "name": "client",
          "type": "address"
        },
        {
          "indexed": false,
          "internalType": "string",
          "name": "title",
          "type": "string"
        },
        {
          "indexed": false,
          "internalType": "uint256",
          "name": "price",
          "type": "uint256"
        }
      ],
      "name": "JobPosted",
      "type": "event"
    },
    {
      "anonymous": false,
      "inputs": [
        {
          "indexed": true,
          "internalType": "address",
          "name": "previousOwner",
          "type": "address"
        },
        {
          "indexed": true,
          "internalType": "address",
          "name": "newOwner",
          "type": "address"
        }
      ],
      "name": "OwnershipTransferred",
      "type": "event"
    },
    {
      "anonymous": false,
      "inputs": [
        {
          "indexed": true,
          "internalType": "uint256",
          "name": "jobId",
          "type": "uint256"
        },
        {
          "indexed": true,
          "internalType": "address",
          "name": "freelancer",
          "type": "address"
        },
        {
          "indexed": false,
          "internalType": "string",
          "name": "resultIPFSHash",
          "type": "string"
        }
      ],
      "name": "WorkSubmitted",
      "type": "event"
    },
    {
      "anonymous": false,
      "inputs": [
        {
          "indexed": true,
          "internalType": "uint256",
          "name": "jobId",
          "type": "uint256"
        },
        {
          "indexed": false,
          "internalType": "bool",
          "name": "isApproved",
          "type": "bool"
        }
      ],
      "name": "WorkVerified",
      "type": "event"
    },
    {
      "inputs": [
        {
          "internalType": "uint256",
          "name": "_jobId",
          "type": "uint256"
        },
        {
          "internalType": "uint256",
          "name": "_bidId",
          "type": "uint256"
        }
      ],
      "name": "acceptBid",
      "outputs": [],
      "stateMutability": "nonpayable",
      "type": "function"
    },
    {
      "inputs": [],
      "name": "aiAgentAddress",
      "outputs": [
        {
          "internalType": "address",
          "name": "",
          "type": "address"
        }
      ],
      "stateMutability": "view",
      "type": "function"
    },
    {
      "inputs": [
        {
          "internalType": "uint256",
          "name": "",
          "type": "uint256"
        },
        {
          "internalType": "uint256",
          "name": "",
          "type": "uint256"
        }
      ],
      "name": "bidsByJobId",
      "outputs": [
        {
          "internalType": "uint256",
          "name": "bidId",
          "type": "uint256"
        },
        {
          "internalType": "uint256",
          "name": "jobId",
          "type": "uint256"
        },
        {
          "internalType": "address payable",
          "name": "freelancer",
          "type": "address"
        },
        {
          "internalType": "string",
          "name": "proposalText",
          "type": "string"
        }
      ],
      "stateMutability": "view",
      "type": "function"
    },
    {
      "inputs": [
        {
          "internalType": "uint256",
          "name": "_jobId",
          "type": "uint256"
        }
      ],
      "name": "clientReleaseFunds",
      "outputs": [],
      "stateMutability": "nonpayable",
      "type": "function"
    },
    {
      "inputs": [
        {
          "internalType": "uint256",
          "name": "_jobId",
          "type": "uint256"
        }
      ],
      "name": "depositForJob",
      "outputs": [],
      "stateMutability": "payable",
      "type": "function"
    },
    {
      "inputs": [
        {
          "internalType": "uint256",
          "name": "_jobId",
          "type": "uint256"
        }
      ],
      "name": "getBidsForJob",
      "outputs": [
        {
          "components": [
            {
              "internalType": "uint256",
              "name": "bidId",
              "type": "uint256"
            },
            {
              "internalType": "uint256",
              "name": "jobId",
              "type": "uint256"
            },
            {
              "internalType": "address payable",
              "name": "freelancer",
              "type": "address"
            },
            {
              "internalType": "string",
              "name": "proposalText",
              "type": "string"
            }
          ],
          "internalType": "struct AIEscrowMarketplace.Bid[]",
          "name": "",
          "type": "tuple[]"
        }
      ],
      "stateMutability": "view",
      "type": "function"
    },
    {
      "inputs": [],
      "name": "getJobCount",
      "outputs": [
        {
          "internalType": "uint256",
          "name": "",
          "type": "uint256"
        }
      ],
      "stateMutability": "view",
      "type": "function"
    },
    {
      "inputs": [
        {
          "internalType": "uint256",
          "name": "",
          "type": "uint256"
        }
      ],
      "name": "jobs",
      "outputs": [
        {
          "internalType": "address payable",
          "name": "client",
          "type": "address"
        },
        {
          "internalType": "address payable",
          "name": "freelancer",
          "type": "address"
        },
        {
          "internalType": "string",
          "name": "title",
          "type": "string"
        },
        {
          "internalType": "string",
          "name": "descriptionIPFSHash",
          "type": "string"
        },
        {
          "internalType": "uint256",
          "name": "price",
          "type": "uint256"
        },
        {
          "internalType": "uint256",
          "name": "deadline",
          "type": "uint256"
        },
        {
          "internalType": "string",
          "name": "resultIPFSHash",
          "type": "string"
        },
        {
          "internalType": "enum AIEscrowMarketplace.Status",
          "name": "status",
          "type": "uint8"
        },
        {
          "internalType": "string",
          "name": "disputeReason",
          "type": "string"
        }
      ],
      "stateMutability": "view",
      "type": "function"
    },
    {
      "inputs": [
        {
          "internalType": "address",
          "name": "",
          "type": "address"
        },
        {
          "internalType": "uint256",
          "name": "",
          "type": "uint256"
        }
      ],
      "name": "jobsByClient",
      "outputs": [
        {
          "internalType": "uint256",
          "name": "",
          "type": "uint256"
        }
      ],
      "stateMutability": "view",
      "type": "function"
    },
    {
      "inputs": [
        {
          "internalType": "address",
          "name": "",
          "type": "address"
        },
        {
          "internalType": "uint256",
          "name": "",
          "type": "uint256"
        }
      ],
      "name": "jobsByFreelancer",
      "outputs": [
        {
          "internalType": "uint256",
          "name": "",
          "type": "uint256"
        }
      ],
      "stateMutability": "view",
      "type": "function"
    },
    {
      "inputs": [],
      "name": "nextJobId",
      "outputs": [
        {
          "internalType": "uint256",
          "name": "",
          "type": "uint256"
        }
      ],
      "stateMutability": "view",
      "type": "function"
    },
    {
      "inputs": [],
      "name": "owner",
      "outputs": [
        {
          "internalType": "address",
          "name": "",
          "type": "address"
        }
      ],
      "stateMutability": "view",
      "type": "function"
    },
    {
      "inputs": [
        {
          "internalType": "string",
          "name": "_title",
          "type": "string"
        },
        {
          "internalType": "string",
          "name": "_descriptionIPFSHash",
          "type": "string"
        },
        {
          "internalType": "uint256",
          "name": "_price",
          "type": "uint256"
        },
        {
          "internalType": "uint256",
          "name": "_deadline",
          "type": "uint256"
        }
      ],
      "name": "postJob",
      "outputs": [],
      "stateMutability": "nonpayable",
      "type": "function"
    },
    {
      "inputs": [
        {
          "internalType": "uint256",
          "name": "_jobId",
          "type": "uint256"
        },
        {
          "internalType": "string",
          "name": "_reason",
          "type": "string"
        }
      ],
      "name": "raiseDispute",
      "outputs": [],
      "stateMutability": "nonpayable",
      "type": "function"
    },
    {
      "inputs": [],
      "name": "renounceOwnership",
      "outputs": [],
      "stateMutability": "nonpayable",
      "type": "function"
    },
    {
      "inputs": [
        {
          "internalType": "uint256",
          "name": "_jobId",
          "type": "uint256"
        },
        {
          "internalType": "bool",
          "name": "_releaseToFreelancer",
          "type": "bool"
        }
      ],
      "name": "resolveDispute",
      "outputs": [],
      "stateMutability": "nonpayable",
      "type": "function"
    },
    {
      "inputs": [
        {
          "internalType": "address",
          "name": "_newAiAgentAddress",
          "type": "address"
        }
      ],
      "name": "setAiAgentAddress",
      "outputs": [],
      "stateMutability": "nonpayable",
      "type": "function"
    },
    {
      "inputs": [
        {
          "internalType": "uint256",
          "name": "_jobId",
          "type": "uint256"
        },
        {
          "internalType": "string",
          "name": "_proposalText",
          "type": "string"
        }
      ],
      "name": "submitBid",
      "outputs": [],
      "stateMutability": "nonpayable",
      "type": "function"
    },
    {
      "inputs": [
        {
          "internalType": "uint256",
          "name": "_jobId",
          "type": "uint256"
        },
        {
          "internalType": "string",
          "name": "_resultIPFSHash",
          "type": "string"
        }
      ],
      "name": "submitWork",
      "outputs": [],
      "stateMutability": "nonpayable",
      "type": "function"
    },
    {
      "inputs": [
        {
          "internalType": "address",
          "name": "newOwner",
          "type": "address"
        }
      ],
      "name": "transferOwnership",
      "outputs": [],
      "stateMutability": "nonpayable",
      "type": "function"
    },
    {
      "inputs": [
        {
          "internalType": "uint256",
          "name": "_jobId",
          "type": "uint256"
        },
        {
          "internalType": "bool",
          "name": "_isApproved",
          "type": "bool"
        }
      ],
      "name": "verifyWork",
      "outputs": [],
      "stateMutability": "nonpayable",
      "type": "function"
    }
  ],
  "bytecode": "0x608060405234801561001057600080fd5b5060405161472b38038061472b833981810160405281019061003291906102dc565b33600073ffffffffffffffffffffffffffffffffffffffff168173ffffffffffffffffffffffffffffffffffffffff16036100a55760006040517f1e4fbdf700000000000000000000000000000000000000000000000000000000815260040161009c9190610318565b60405180910390fd5b6100b4816101b560201b60201c565b5060018081905550600073ffffffffffffffffffffffffffffffffffffffff168173ffffffffffffffffffffffffffffffffffffffff160361012b576040517f08c379a0000000000000000000000000000000000000000000000000000000008152600401610122906103b6565b60405180910390fd5b80600260006101000a81548173ffffffffffffffffffffffffffffffffffffffff021916908373ffffffffffffffffffffffffffffffffffffffff1602179055508073ffffffffffffffffffffffffffffffffffffffff167f34021934f0cf6727b5f943c90bd812148be4c61aeeb3c4cdc494a10a7c55db8a60405160405180910390a2506103d6565b60008060009054906101000a900473ffffffffffffffffffffffffffffffffffffffff169050816000806101000a81548173ffffffffffffffffffffffffffffffffffffffff021916908373ffffffffffffffffffffffffffffffffffffffff1602179055508173ffffffffffffffffffffffffffffffffffffffff168173ffffffffffffffffffffffffffffffffffffffff167f8be0079c531659141344cd1fd0a4f28419497f9722a3daafe3b4186f6b6457e060405160405180910390a35050565b600080fd5b600073ffffffffffffffffffffffffffffffffffffffff82169050919050565b60006102a98261027e565b9050919050565b6102b98161029e565b81146102c457600080fd5b50565b6000815190506102d6816102b0565b92915050565b6000602082840312156102f2576102f1610279565b5b6000610300848285016102c7565b91505092915050565b6103128161029e565b82525050565b600060208201905061032d6000830184610309565b92915050565b600082825260208201905092915050565b7f4149457363726f773a20496e697469616c204149204167656e7420616464726560008201527f73732063616e6e6f7420626520746865207a65726f2061646472657373000000602082015250565b60006103a0603d83610333565b91506103ab82610344565b604082019050919050565b600060208201905081810360008301526103cf81610393565b9050919050565b614346806103e56000396000f3fe60806040526004361061012a5760003560e01c8063848fbf4d116100ab578063b0c2aa5e1161006f578063b0c2aa5e146103d6578063c1d1fd7b14610401578063da8accf91461043e578063f2fde38b14610467578063fb29d20a14610490578063fcfb06c3146104bb5761012a565b8063848fbf4d146102da5780638da5cb5b146103035780639893849e1461032e578063a06776421461036e578063b02b4a2f146103ab5761012a565b80635371a306116100f25780635371a3061461022c5780635aef573c14610248578063655e609a14610271578063715018a61461029a57806371bf6bed146102b15761012a565b806302e9d5e41461012f57806306eab34914610158578063180aedf31461019557806334b25ee2146101da5780633a01135e14610203575b600080fd5b34801561013b57600080fd5b5061015660048036038101906101519190612b30565b6104e4565b005b34801561016457600080fd5b5061017f600480360381019061017a9190612b70565b6108d0565b60405161018c9190612da2565b60405180910390f35b3480156101a157600080fd5b506101bc60048036038101906101b79190612b70565b610ae3565b6040516101d199989796959493929190612ea3565b60405180910390f35b3480156101e657600080fd5b5061020160048036038101906101fc9190612f84565b610d9e565b005b34801561020f57600080fd5b5061022a600480360381019061022591906130f9565b611037565b005b61024660048036038101906102419190612b70565b611386565b005b34801561025457600080fd5b5061026f600480360381019061026a91906130f9565b611635565b005b34801561027d57600080fd5b5061029860048036038101906102939190613193565b6118fc565b005b3480156102a657600080fd5b506102af6119fa565b005b3480156102bd57600080fd5b506102d860048036038101906102d391906131c0565b611a0e565b005b3480156102e657600080fd5b5061030160048036038101906102fc9190612f84565b611dd7565b005b34801561030f57600080fd5b50610318612094565b604051610325919061326e565b60405180910390f35b34801561033a57600080fd5b5061035560048036038101906103509190612b30565b6120bd565b6040516103659493929190613289565b60405180910390f35b34801561037a57600080fd5b50610395600480360381019061039091906132d5565b6121b2565b6040516103a29190613315565b60405180910390f35b3480156103b757600080fd5b506103c06121e3565b6040516103cd9190613315565b60405180910390f35b3480156103e257600080fd5b506103eb6121ed565b6040516103f89190613315565b60405180910390f35b34801561040d57600080fd5b50610428600480360381019061042391906132d5565b6121f3565b6040516104359190613315565b60405180910390f35b34801561044a57600080fd5b50610465600480360381019061046091906130f9565b612224565b005b34801561047357600080fd5b5061048e60048036038101906104899190613193565b61250f565b005b34801561049c57600080fd5b506104a5612595565b6040516104b2919061326e565b60405180910390f35b3480156104c757600080fd5b506104e260048036038101906104dd9190612b70565b6125bb565b005b81600073ffffffffffffffffffffffffffffffffffffffff166004600083815260200190815260200160002060000160009054906101000a900473ffffffffffffffffffffffffffffffffffffffff1673ffffffffffffffffffffffffffffffffffffffff160361058a576040517f08c379a00000000000000000000000000000000000000000000000000000000081526004016105819061337c565b60405180910390fd5b6004600082815260200190815260200160002060000160009054906101000a900473ffffffffffffffffffffffffffffffffffffffff1673ffffffffffffffffffffffffffffffffffffffff163373ffffffffffffffffffffffffffffffffffffffff161461062e576040517f08c379a00000000000000000000000000000000000000000000000000000000081526004016106259061340e565b60405180910390fd5b60006004600085815260200190815260200160002090506000600781111561065957610658612e2c565b5b8160070160009054906101000a900460ff16600781111561067d5761067c612e2c565b5b146106bd576040517f08c379a00000000000000000000000000000000000000000000000000000000081526004016106b4906134a0565b60405180910390fd5b60056000858152602001908152602001600020805490508310610715576040517f08c379a000000000000000000000000000000000000000000000000000000000815260040161070c9061350c565b60405180910390fd5b600060056000868152602001908152602001600020848154811061073c5761073b61352c565b5b906000526020600020906004020190508060020160009054906101000a900473ffffffffffffffffffffffffffffffffffffffff168260010160006101000a81548173ffffffffffffffffffffffffffffffffffffffff021916908373ffffffffffffffffffffffffffffffffffffffff16021790555060018260070160006101000a81548160ff021916908360078111156107db576107da612e2c565b5b0217905550600660008260020160009054906101000a900473ffffffffffffffffffffffffffffffffffffffff1673ffffffffffffffffffffffffffffffffffffffff1673ffffffffffffffffffffffffffffffffffffffff16815260200190815260200160002085908060018154018082558091505060019003906000526020600020016000909190919091505583857ff16c5ed39dc31d5eab2c86ade83769cf987d78b585032fa15c9ca45e7f5fe64e338460020160009054906101000a900473ffffffffffffffffffffffffffffffffffffffff166040516108c19291906135ba565b60405180910390a35050505050565b6060600073ffffffffffffffffffffffffffffffffffffffff166004600084815260200190815260200160002060000160009054906101000a900473ffffffffffffffffffffffffffffffffffffffff1673ffffffffffffffffffffffffffffffffffffffff1603610977576040517f08c379a000000000000000000000000000000000000000000000000000000000815260040161096e9061337c565b60405180910390fd5b60056000838152602001908152602001600020805480602002602001604051908101604052809291908181526020016000905b82821015610ad8578382906000526020600020906004020160405180608001604052908160008201548152602001600182015481526020016002820160009054906101000a900473ffffffffffffffffffffffffffffffffffffffff1673ffffffffffffffffffffffffffffffffffffffff1673ffffffffffffffffffffffffffffffffffffffff168152602001600382018054610a4790613612565b80601f0160208091040260200160405190810160405280929190818152602001828054610a7390613612565b8015610ac05780601f10610a9557610100808354040283529160200191610ac0565b820191906000526020600020905b815481529060010190602001808311610aa357829003601f168201915b505050505081525050815260200190600101906109aa565b505050509050919050565b60046020528060005260406000206000915090508060000160009054906101000a900473ffffffffffffffffffffffffffffffffffffffff16908060010160009054906101000a900473ffffffffffffffffffffffffffffffffffffffff1690806002018054610b5290613612565b80601f0160208091040260200160405190810160405280929190818152602001828054610b7e90613612565b8015610bcb5780601f10610ba057610100808354040283529160200191610bcb565b820191906000526020600020905b815481529060010190602001808311610bae57829003601f168201915b505050505090806003018054610be090613612565b80601f0160208091040260200160405190810160405280929190818152602001828054610c0c90613612565b8015610c595780601f10610c2e57610100808354040283529160200191610c59565b820191906000526020600020905b815481529060010190602001808311610c3c57829003601f168201915b505050505090806004015490806005015490806006018054610c7a90613612565b80601f0160208091040260200160405190810160405280929190818152602001828054610ca690613612565b8015610cf35780601f10610cc857610100808354040283529160200191610cf3565b820191906000526020600020905b815481529060010190602001808311610cd657829003601f168201915b5050505050908060070160009054906101000a900460ff1690806008018054610d1b90613612565b80601f0160208091040260200160405190810160405280929190818152602001828054610d4790613612565b8015610d945780601f10610d6957610100808354040283529160200191610d94565b820191906000526020600020905b815481529060010190602001808311610d7757829003601f168201915b5050505050905089565b610da66127b0565b600260009054906101000a900473ffffffffffffffffffffffffffffffffffffffff1673ffffffffffffffffffffffffffffffffffffffff163373ffffffffffffffffffffffffffffffffffffffff1614610e36576040517f08c379a0000000000000000000000000000000000000000000000000000000008152600401610e2d906136b5565b60405180910390fd5b816005806007811115610e4c57610e4b612e2c565b5b6004600084815260200190815260200160002060070160009054906101000a900460ff166007811115610e8257610e81612e2c565b5b14610ec2576040517f08c379a0000000000000000000000000000000000000000000000000000000008152600401610eb990613747565b60405180910390fd5b60006004600086815260200190815260200160002090508315610eed57610ee8856127f6565b610ff0565b60078160070160006101000a81548160ff02191690836007811115610f1557610f14612e2c565b5b021790555060008160000160009054906101000a900473ffffffffffffffffffffffffffffffffffffffff1673ffffffffffffffffffffffffffffffffffffffff168260040154604051610f6890613798565b60006040518083038185875af1925050503d8060008114610fa5576040519150601f19603f3d011682016040523d82523d6000602084013e610faa565b606091505b5050905080610fee576040517f08c379a0000000000000000000000000000000000000000000000000000000008152600401610fe59061381f565b60405180910390fd5b505b847f5a87909bff68caaaaf0b3fd9c74eeccc928832f879315e5c6fb7a73612f26c0c85604051611020919061384e565b60405180910390a250505061103361298a565b5050565b6000600460008481526020019081526020016000209050600073ffffffffffffffffffffffffffffffffffffffff168160000160009054906101000a900473ffffffffffffffffffffffffffffffffffffffff1673ffffffffffffffffffffffffffffffffffffffff16036110e1576040517f08c379a00000000000000000000000000000000000000000000000000000000081526004016110d89061337c565b60405180910390fd5b600060078111156110f5576110f4612e2c565b5b8160070160009054906101000a900460ff16600781111561111957611118612e2c565b5b14611159576040517f08c379a0000000000000000000000000000000000000000000000000000000008152600401611150906134a0565b60405180910390fd5b600082511161119d576040517f08c379a0000000000000000000000000000000000000000000000000000000008152600401611194906138db565b60405180910390fd5b8060000160009054906101000a900473ffffffffffffffffffffffffffffffffffffffff1673ffffffffffffffffffffffffffffffffffffffff163373ffffffffffffffffffffffffffffffffffffffff160361122f576040517f08c379a00000000000000000000000000000000000000000000000000000000081526004016112269061396d565b60405180910390fd5b6000600560008581526020019081526020016000208054905090506005600085815260200190815260200160002060405180608001604052808381526020018681526020013373ffffffffffffffffffffffffffffffffffffffff168152602001858152509080600181540180825580915050600190039060005260206000209060040201600090919091909150600082015181600001556020820151816001015560408201518160020160006101000a81548173ffffffffffffffffffffffffffffffffffffffff021916908373ffffffffffffffffffffffffffffffffffffffff160217905550606082015181600301908161132d9190613b2f565b5050503373ffffffffffffffffffffffffffffffffffffffff1681857f54393d3f62fff703fd300361651548f60b74468324e0bf025524d9e4152e9ba6866040516113789190613c01565b60405180910390a450505050565b61138e6127b0565b80600073ffffffffffffffffffffffffffffffffffffffff166004600083815260200190815260200160002060000160009054906101000a900473ffffffffffffffffffffffffffffffffffffffff1673ffffffffffffffffffffffffffffffffffffffff1603611434576040517f08c379a000000000000000000000000000000000000000000000000000000000815260040161142b9061337c565b60405180910390fd5b6004600082815260200190815260200160002060000160009054906101000a900473ffffffffffffffffffffffffffffffffffffffff1673ffffffffffffffffffffffffffffffffffffffff163373ffffffffffffffffffffffffffffffffffffffff16146114d8576040517f08c379a00000000000000000000000000000000000000000000000000000000081526004016114cf9061340e565b60405180910390fd5b8160018060078111156114ee576114ed612e2c565b5b6004600084815260200190815260200160002060070160009054906101000a900460ff16600781111561152457611523612e2c565b5b14611564576040517f08c379a000000000000000000000000000000000000000000000000000000000815260040161155b90613747565b60405180910390fd5b6000600460008681526020019081526020016000209050806004015434146115c1576040517f08c379a00000000000000000000000000000000000000000000000000000000081526004016115b890613c95565b60405180910390fd5b60028160070160006101000a81548160ff021916908360078111156115e9576115e8612e2c565b5b0217905550847f26679fa1f3868c950e9362f1106cf73f3318de0280e0411a3c68e4b463eadd4f3460405161161e9190613315565b60405180910390a25050505061163261298a565b50565b81600073ffffffffffffffffffffffffffffffffffffffff166004600083815260200190815260200160002060000160009054906101000a900473ffffffffffffffffffffffffffffffffffffffff1673ffffffffffffffffffffffffffffffffffffffff16036116db576040517f08c379a00000000000000000000000000000000000000000000000000000000081526004016116d29061337c565b60405180910390fd5b6004600082815260200190815260200160002060000160009054906101000a900473ffffffffffffffffffffffffffffffffffffffff1673ffffffffffffffffffffffffffffffffffffffff163373ffffffffffffffffffffffffffffffffffffffff161461177f576040517f08c379a00000000000000000000000000000000000000000000000000000000081526004016117769061340e565b60405180910390fd5b82600480600781111561179557611794612e2c565b5b6004600084815260200190815260200160002060070160009054906101000a900460ff1660078111156117cb576117ca612e2c565b5b1461180b576040517f08c379a000000000000000000000000000000000000000000000000000000000815260040161180290613747565b60405180910390fd5b60006004600087815260200190815260200160002090506000855111611866576040517f08c379a000000000000000000000000000000000000000000000000000000000815260040161185d90613d27565b60405180910390fd5b60058160070160006101000a81548160ff0219169083600781111561188e5761188d612e2c565b5b0217905550848160080190816118a49190613b2f565b503373ffffffffffffffffffffffffffffffffffffffff16867fb59122d87b9a129d9dbb8103c368a3de4e00b50a9fc86c22d48c74cca778e670876040516118ec9190613c01565b60405180910390a3505050505050565b611904612993565b600073ffffffffffffffffffffffffffffffffffffffff168173ffffffffffffffffffffffffffffffffffffffff1603611973576040517f08c379a000000000000000000000000000000000000000000000000000000000815260040161196a90613db9565b60405180910390fd5b80600260006101000a81548173ffffffffffffffffffffffffffffffffffffffff021916908373ffffffffffffffffffffffffffffffffffffffff1602179055508073ffffffffffffffffffffffffffffffffffffffff167f34021934f0cf6727b5f943c90bd812148be4c61aeeb3c4cdc494a10a7c55db8a60405160405180910390a250565b611a02612993565b611a0c6000612a1a565b565b6000845111611a52576040517f08c379a0000000000000000000000000000000000000000000000000000000008152600401611a4990613e4b565b60405180910390fd5b6000835111611a96576040517f08c379a0000000000000000000000000000000000000000000000000000000008152600401611a8d90613edd565b60405180910390fd5b60008211611ad9576040517f08c379a0000000000000000000000000000000000000000000000000000000008152600401611ad090613f6f565b60405180910390fd5b428111611b1b576040517f08c379a0000000000000000000000000000000000000000000000000000000008152600401611b1290614001565b60405180910390fd5b600060035490506040518061012001604052803373ffffffffffffffffffffffffffffffffffffffff168152602001600073ffffffffffffffffffffffffffffffffffffffff16815260200186815260200185815260200184815260200183815260200160405180602001604052806000815250815260200160006007811115611ba857611ba7612e2c565b5b8152602001604051806020016040528060008152508152506004600083815260200190815260200160002060008201518160000160006101000a81548173ffffffffffffffffffffffffffffffffffffffff021916908373ffffffffffffffffffffffffffffffffffffffff16021790555060208201518160010160006101000a81548173ffffffffffffffffffffffffffffffffffffffff021916908373ffffffffffffffffffffffffffffffffffffffff1602179055506040820151816002019081611c769190613b2f565b506060820151816003019081611c8c9190613b2f565b506080820151816004015560a0820151816005015560c0820151816006019081611cb69190613b2f565b5060e08201518160070160006101000a81548160ff02191690836007811115611ce257611ce1612e2c565b5b0217905550610100820151816008019081611cfd9190613b2f565b50905050600760003373ffffffffffffffffffffffffffffffffffffffff1673ffffffffffffffffffffffffffffffffffffffff16815260200190815260200160002081908060018154018082558091505060019003906000526020600020016000909190919091505560036000815480929190611d7a90614050565b91905055503373ffffffffffffffffffffffffffffffffffffffff16817fd347156c0e050f531434f3eac5fc2137040ab077ca656f465275ebe566aaf1158786604051611dc8929190614098565b60405180910390a35050505050565b611ddf6127b0565b600260009054906101000a900473ffffffffffffffffffffffffffffffffffffffff1673ffffffffffffffffffffffffffffffffffffffff163373ffffffffffffffffffffffffffffffffffffffff1614611e6f576040517f08c379a0000000000000000000000000000000000000000000000000000000008152600401611e66906136b5565b60405180910390fd5b816003806007811115611e8557611e84612e2c565b5b6004600084815260200190815260200160002060070160009054906101000a900460ff166007811115611ebb57611eba612e2c565b5b14611efb576040517f08c379a0000000000000000000000000000000000000000000000000000000008152600401611ef290613747565b60405180910390fd5b60006004600086815260200190815260200160002090508315611f4a5760048160070160006101000a81548160ff02191690836007811115611f4057611f3f612e2c565b5b021790555061204d565b60078160070160006101000a81548160ff02191690836007811115611f7257611f71612e2c565b5b021790555060008160000160009054906101000a900473ffffffffffffffffffffffffffffffffffffffff1673ffffffffffffffffffffffffffffffffffffffff168260040154604051611fc590613798565b60006040518083038185875af1925050503d8060008114612002576040519150601f19603f3d011682016040523d82523d6000602084013e612007565b606091505b505090508061204b576040517f08c379a00000000000000000000000000000000000000000000000000000000081526004016120429061413a565b60405180910390fd5b505b847f99e0637541c51fd0c0f300bd6a86ad85fd1eef21767dc2f6546e4c000d9f06658560405161207d919061384e565b60405180910390a250505061209061298a565b5050565b60008060009054906101000a900473ffffffffffffffffffffffffffffffffffffffff16905090565b600560205281600052604060002081815481106120d957600080fd5b9060005260206000209060040201600091509150508060000154908060010154908060020160009054906101000a900473ffffffffffffffffffffffffffffffffffffffff169080600301805461212f90613612565b80601f016020809104026020016040519081016040528092919081815260200182805461215b90613612565b80156121a85780601f1061217d576101008083540402835291602001916121a8565b820191906000526020600020905b81548152906001019060200180831161218b57829003601f168201915b5050505050905084565b600660205281600052604060002081815481106121ce57600080fd5b90600052602060002001600091509150505481565b6000600354905090565b60035481565b6007602052816000526040600020818154811061220f57600080fd5b90600052602060002001600091509150505481565b81600073ffffffffffffffffffffffffffffffffffffffff166004600083815260200190815260200160002060010160009054906101000a900473ffffffffffffffffffffffffffffffffffffffff1673ffffffffffffffffffffffffffffffffffffffff16036122ca576040517f08c379a00000000000000000000000000000000000000000000000000000000081526004016122c19061337c565b60405180910390fd5b6004600082815260200190815260200160002060010160009054906101000a900473ffffffffffffffffffffffffffffffffffffffff1673ffffffffffffffffffffffffffffffffffffffff163373ffffffffffffffffffffffffffffffffffffffff161461236e576040517f08c379a0000000000000000000000000000000000000000000000000000000008152600401612365906141cc565b60405180910390fd5b82600280600781111561238457612383612e2c565b5b6004600084815260200190815260200160002060070160009054906101000a900460ff1660078111156123ba576123b9612e2c565b5b146123fa576040517f08c379a00000000000000000000000000000000000000000000000000000000081526004016123f190613747565b60405180910390fd5b600084511161243e576040517f08c379a00000000000000000000000000000000000000000000000000000000081526004016124359061425e565b60405180910390fd5b6000600460008781526020019081526020016000209050848160060190816124669190613b2f565b5060038160070160006101000a81548160ff0219169083600781111561248f5761248e612e2c565b5b02179055508060010160009054906101000a900473ffffffffffffffffffffffffffffffffffffffff1673ffffffffffffffffffffffffffffffffffffffff16867fd5d9bc882dc95f198786a74e52a0b87e49a07c80921b74821ba374339e394d30876040516124ff9190613c01565b60405180910390a3505050505050565b612517612993565b600073ffffffffffffffffffffffffffffffffffffffff168173ffffffffffffffffffffffffffffffffffffffff16036125895760006040517f1e4fbdf7000000000000000000000000000000000000000000000000000000008152600401612580919061326e565b60405180910390fd5b61259281612a1a565b50565b600260009054906101000a900473ffffffffffffffffffffffffffffffffffffffff1681565b6125c36127b0565b80600073ffffffffffffffffffffffffffffffffffffffff166004600083815260200190815260200160002060000160009054906101000a900473ffffffffffffffffffffffffffffffffffffffff1673ffffffffffffffffffffffffffffffffffffffff1603612669576040517f08c379a00000000000000000000000000000000000000000000000000000000081526004016126609061337c565b60405180910390fd5b6004600082815260200190815260200160002060000160009054906101000a900473ffffffffffffffffffffffffffffffffffffffff1673ffffffffffffffffffffffffffffffffffffffff163373ffffffffffffffffffffffffffffffffffffffff161461270d576040517f08c379a00000000000000000000000000000000000000000000000000000000081526004016127049061340e565b60405180910390fd5b81600480600781111561272357612722612e2c565b5b6004600084815260200190815260200160002060070160009054906101000a900460ff16600781111561275957612758612e2c565b5b14612799576040517f08c379a000000000000000000000000000000000000000000000000000000000815260040161279090613747565b60405180910390fd5b6127a2846127f6565b5050506127ad61298a565b50565b6002600154036127ec576040517f3ee5aeb500000000000000000000000000000000000000000000000000000000815260040160405180910390fd5b6002600181905550565b600060046000838152602001908152602001600020905060068160070160006101000a81548160ff0219169083600781111561283557612834612e2c565b5b021790555060008160010160009054906101000a900473ffffffffffffffffffffffffffffffffffffffff1673ffffffffffffffffffffffffffffffffffffffff16826004015460405161288890613798565b60006040518083038185875af1925050503d80600081146128c5576040519150601f19603f3d011682016040523d82523d6000602084013e6128ca565b606091505b505090508061290e576040517f08c379a0000000000000000000000000000000000000000000000000000000008152600401612905906142f0565b60405180910390fd5b8160010160009054906101000a900473ffffffffffffffffffffffffffffffffffffffff1673ffffffffffffffffffffffffffffffffffffffff16837f6e3c6096795c8298a218b2cfb8bde42726ff7c9a3d27b4d3ba41ab7f74feb5fb846004015460405161297d9190613315565b60405180910390a3505050565b60018081905550565b61299b612ade565b73ffffffffffffffffffffffffffffffffffffffff166129b9612094565b73ffffffffffffffffffffffffffffffffffffffff1614612a18576129dc612ade565b6040517f118cdaa7000000000000000000000000000000000000000000000000000000008152600401612a0f919061326e565b60405180910390fd5b565b60008060009054906101000a900473ffffffffffffffffffffffffffffffffffffffff169050816000806101000a81548173ffffffffffffffffffffffffffffffffffffffff021916908373ffffffffffffffffffffffffffffffffffffffff1602179055508173ffffffffffffffffffffffffffffffffffffffff168173ffffffffffffffffffffffffffffffffffffffff167f8be0079c531659141344cd1fd0a4f28419497f9722a3daafe3b4186f6b6457e060405160405180910390a35050565b600033905090565b6000604051905090565b600080fd5b600080fd5b6000819050919050565b612b0d81612afa565b8114612b1857600080fd5b50565b600081359050612b2a81612b04565b92915050565b60008060408385031215612b4757612b46612af0565b5b6000612b5585828601612b1b565b9250506020612b6685828601612b1b565b9150509250929050565b600060208284031215612b8657612b85612af0565b5b6000612b9484828501612b1b565b91505092915050565b600081519050919050565b600082825260208201905092915050565b6000819050602082019050919050565b612bd281612afa565b82525050565b600073ffffffffffffffffffffffffffffffffffffffff82169050919050565b6000612c0382612bd8565b9050919050565b612c1381612bf8565b82525050565b600081519050919050565b600082825260208201905092915050565b60005b83811015612c53578082015181840152602081019050612c38565b60008484015250505050565b6000601f19601f8301169050919050565b6000612c7b82612c19565b612c858185612c24565b9350612c95818560208601612c35565b612c9e81612c5f565b840191505092915050565b6000608083016000830151612cc16000860182612bc9565b506020830151612cd46020860182612bc9565b506040830151612ce76040860182612c0a565b5060608301518482036060860152612cff8282612c70565b9150508091505092915050565b6000612d188383612ca9565b905092915050565b6000602082019050919050565b6000612d3882612b9d565b612d428185612ba8565b935083602082028501612d5485612bb9565b8060005b85811015612d905784840389528151612d718582612d0c565b9450612d7c83612d20565b925060208a01995050600181019050612d58565b50829750879550505050505092915050565b60006020820190508181036000830152612dbc8184612d2d565b905092915050565b612dcd81612bf8565b82525050565b600082825260208201905092915050565b6000612def82612c19565b612df98185612dd3565b9350612e09818560208601612c35565b612e1281612c5f565b840191505092915050565b612e2681612afa565b82525050565b7f4e487b7100000000000000000000000000000000000000000000000000000000600052602160045260246000fd5b60088110612e6c57612e6b612e2c565b5b50565b6000819050612e7d82612e5b565b919050565b6000612e8d82612e6f565b9050919050565b612e9d81612e82565b82525050565b600061012082019050612eb9600083018c612dc4565b612ec6602083018b612dc4565b8181036040830152612ed8818a612de4565b90508181036060830152612eec8189612de4565b9050612efb6080830188612e1d565b612f0860a0830187612e1d565b81810360c0830152612f1a8186612de4565b9050612f2960e0830185612e94565b818103610100830152612f3c8184612de4565b90509a9950505050505050505050565b60008115159050919050565b612f6181612f4c565b8114612f6c57600080fd5b50565b600081359050612f7e81612f58565b92915050565b60008060408385031215612f9b57612f9a612af0565b5b6000612fa985828601612b1b565b9250506020612fba85828601612f6f565b9150509250929050565b600080fd5b600080fd5b7f4e487b7100000000000000000000000000000000000000000000000000000000600052604160045260246000fd5b61300682612c5f565b810181811067ffffffffffffffff8211171561302557613024612fce565b5b80604052505050565b6000613038612ae6565b90506130448282612ffd565b919050565b600067ffffffffffffffff82111561306457613063612fce565b5b61306d82612c5f565b9050602081019050919050565b82818337600083830152505050565b600061309c61309784613049565b61302e565b9050828152602081018484840111156130b8576130b7612fc9565b5b6130c384828561307a565b509392505050565b600082601f8301126130e0576130df612fc4565b5b81356130f0848260208601613089565b91505092915050565b600080604083850312156131105761310f612af0565b5b600061311e85828601612b1b565b925050602083013567ffffffffffffffff81111561313f5761313e612af5565b5b61314b858286016130cb565b9150509250929050565b600061316082612bd8565b9050919050565b61317081613155565b811461317b57600080fd5b50565b60008135905061318d81613167565b92915050565b6000602082840312156131a9576131a8612af0565b5b60006131b78482850161317e565b91505092915050565b600080600080608085870312156131da576131d9612af0565b5b600085013567ffffffffffffffff8111156131f8576131f7612af5565b5b613204878288016130cb565b945050602085013567ffffffffffffffff81111561322557613224612af5565b5b613231878288016130cb565b935050604061324287828801612b1b565b925050606061325387828801612b1b565b91505092959194509250565b61326881613155565b82525050565b6000602082019050613283600083018461325f565b92915050565b600060808201905061329e6000830187612e1d565b6132ab6020830186612e1d565b6132b86040830185612dc4565b81810360608301526132ca8184612de4565b905095945050505050565b600080604083850312156132ec576132eb612af0565b5b60006132fa8582860161317e565b925050602061330b85828601612b1b565b9150509250929050565b600060208201905061332a6000830184612e1d565b92915050565b7f4149457363726f773a204a6f6220646f6573206e6f7420657869737400000000600082015250565b6000613366601c83612dd3565b915061337182613330565b602082019050919050565b6000602082019050818103600083015261339581613359565b9050919050565b7f4149457363726f773a2043616c6c6572206973206e6f7420746865206a6f622060008201527f636c69656e740000000000000000000000000000000000000000000000000000602082015250565b60006133f8602683612dd3565b91506134038261339c565b604082019050919050565b60006020820190508181036000830152613427816133eb565b9050919050565b7f4149457363726f773a204a6f62206973206e6f74206f70656e20666f7220626960008201527f6464696e67000000000000000000000000000000000000000000000000000000602082015250565b600061348a602583612dd3565b91506134958261342e565b604082019050919050565b600060208201905081810360008301526134b98161347d565b9050919050565b7f4149457363726f773a20496e76616c6964206269642049440000000000000000600082015250565b60006134f6601883612dd3565b9150613501826134c0565b602082019050919050565b60006020820190508181036000830152613525816134e9565b9050919050565b7f4e487b7100000000000000000000000000000000000000000000000000000000600052603260045260246000fd5b6000819050919050565b600061358061357b61357684612bd8565b61355b565b612bd8565b9050919050565b600061359282613565565b9050919050565b60006135a482613587565b9050919050565b6135b481613599565b82525050565b60006040820190506135cf600083018561325f565b6135dc60208301846135ab565b9392505050565b7f4e487b7100000000000000000000000000000000000000000000000000000000600052602260045260246000fd5b6000600282049050600182168061362a57607f821691505b60208210810361363d5761363c6135e3565b5b50919050565b7f4149457363726f773a2043616c6c6572206973206e6f7420746865204149204160008201527f67656e7400000000000000000000000000000000000000000000000000000000602082015250565b600061369f602483612dd3565b91506136aa82613643565b604082019050919050565b600060208201905081810360008301526136ce81613692565b9050919050565b7f4149457363726f773a204a6f62206973206e6f7420696e20746865207265717560008201527f6972656420737461747573000000000000000000000000000000000000000000602082015250565b6000613731602b83612dd3565b915061373c826136d5565b604082019050919050565b6000602082019050818103600083015261376081613724565b9050919050565b600081905092915050565b50565b6000613782600083613767565b915061378d82613772565b600082019050919050565b60006137a382613775565b9150819050919050565b7f4149457363726f773a204661696c656420746f20726566756e6420636c69656e60008201527f7400000000000000000000000000000000000000000000000000000000000000602082015250565b6000613809602183612dd3565b9150613814826137ad565b604082019050919050565b60006020820190508181036000830152613838816137fc565b9050919050565b61384881612f4c565b82525050565b6000602082019050613863600083018461383f565b92915050565b7f4149457363726f773a2050726f706f73616c20746578742063616e6e6f74206260008201527f6520656d70747900000000000000000000000000000000000000000000000000602082015250565b60006138c5602783612dd3565b91506138d082613869565b604082019050919050565b600060208201905081810360008301526138f4816138b8565b9050919050565b7f4149457363726f773a20436c69656e742063616e6e6f74207375626d6974206160008201527f20626964206f6e207468656972206f776e206a6f620000000000000000000000602082015250565b6000613957603583612dd3565b9150613962826138fb565b604082019050919050565b600060208201905081810360008301526139868161394a565b9050919050565b60008190508160005260206000209050919050565b60006020601f8301049050919050565b600082821b905092915050565b6000600883026139ef7fffffffffffffffffffffffffffffffffffffffffffffffffffffffffffffffff826139b2565b6139f986836139b2565b95508019841693508086168417925050509392505050565b6000613a2c613a27613a2284612afa565b61355b565b612afa565b9050919050565b6000819050919050565b613a4683613a11565b613a5a613a5282613a33565b8484546139bf565b825550505050565b600090565b613a6f613a62565b613a7a818484613a3d565b505050565b5b81811015613a9e57613a93600082613a67565b600181019050613a80565b5050565b601f821115613ae357613ab48161398d565b613abd846139a2565b81016020851015613acc578190505b613ae0613ad8856139a2565b830182613a7f565b50505b505050565b600082821c905092915050565b6000613b0660001984600802613ae8565b1980831691505092915050565b6000613b1f8383613af5565b9150826002028217905092915050565b613b3882612c19565b67ffffffffffffffff811115613b5157613b50612fce565b5b613b5b8254613612565b613b66828285613aa2565b600060209050601f831160018114613b995760008415613b87578287015190505b613b918582613b13565b865550613bf9565b601f198416613ba78661398d565b60005b82811015613bcf57848901518255600182019150602085019450602081019050613baa565b86831015613bec5784890151613be8601f891682613af5565b8355505b6001600288020188555050505b505050505050565b60006020820190508181036000830152613c1b8184612de4565b905092915050565b7f4149457363726f773a20496e636f7272656374206465706f73697420616d6f7560008201527f6e74000000000000000000000000000000000000000000000000000000000000602082015250565b6000613c7f602283612dd3565b9150613c8a82613c23565b604082019050919050565b60006020820190508181036000830152613cae81613c72565b9050919050565b7f4149457363726f773a204469737075746520726561736f6e2063616e6e6f742060008201527f626520656d707479000000000000000000000000000000000000000000000000602082015250565b6000613d11602883612dd3565b9150613d1c82613cb5565b604082019050919050565b60006020820190508181036000830152613d4081613d04565b9050919050565b7f4149457363726f773a204e6577204149204167656e742061646472657373206360008201527f616e6e6f7420626520746865207a65726f206164647265737300000000000000602082015250565b6000613da3603983612dd3565b9150613dae82613d47565b604082019050919050565b60006020820190508181036000830152613dd281613d96565b9050919050565b7f4149457363726f773a204a6f62207469746c652063616e6e6f7420626520656d60008201527f7074790000000000000000000000000000000000000000000000000000000000602082015250565b6000613e35602383612dd3565b9150613e4082613dd9565b604082019050919050565b60006020820190508181036000830152613e6481613e28565b9050919050565b7f4149457363726f773a20576f726b206465736372697074696f6e20495046532060008201527f686173682063616e6e6f7420626520656d707479000000000000000000000000602082015250565b6000613ec7603483612dd3565b9150613ed282613e6b565b604082019050919050565b60006020820190508181036000830152613ef681613eba565b9050919050565b7f4149457363726f773a205072696365206d75737420626520677265617465722060008201527f7468616e207a65726f0000000000000000000000000000000000000000000000602082015250565b6000613f59602983612dd3565b9150613f6482613efd565b604082019050919050565b60006020820190508181036000830152613f8881613f4c565b9050919050565b7f4149457363726f773a20446561646c696e65206d75737420626520696e20746860008201527f6520667574757265000000000000000000000000000000000000000000000000602082015250565b6000613feb602883612dd3565b9150613ff682613f8f565b604082019050919050565b6000602082019050818103600083015261401a81613fde565b9050919050565b7f4e487b7100000000000000000000000000000000000000000000000000000000600052601160045260246000fd5b600061405b82612afa565b91507fffffffffffffffffffffffffffffffffffffffffffffffffffffffffffffffff820361408d5761408c614021565b5b600182019050919050565b600060408201905081810360008301526140b28185612de4565b90506140c16020830184612e1d565b9392505050565b7f4149457363726f773a204661696c656420746f20726566756e6420636c69656e60008201527f74206f6e2072656a656374696f6e000000000000000000000000000000000000602082015250565b6000614124602e83612dd3565b915061412f826140c8565b604082019050919050565b6000602082019050818103600083015261415381614117565b9050919050565b7f4149457363726f773a2043616c6c6572206973206e6f7420746865206a6f622060008201527f667265656c616e63657200000000000000000000000000000000000000000000602082015250565b60006141b6602a83612dd3565b91506141c18261415a565b604082019050919050565b600060208201905081810360008301526141e5816141a9565b9050919050565b7f4149457363726f773a20526573756c74204950465320686173682063616e6e6f60008201527f7420626520656d70747900000000000000000000000000000000000000000000602082015250565b6000614248602a83612dd3565b9150614253826141ec565b604082019050919050565b600060208201905081810360008301526142778161423b565b9050919050565b7f4149457363726f773a204661696c656420746f2072656c656173652066756e6460008201527f7320746f20667265656c616e6365720000000000000000000000000000000000602082015250565b60006142da602f83612dd3565b91506142e58261427e565b604082019050919050565b60006020820190508181036000830152614309816142cd565b905091905056fea26469706673582212207876955944b1aebe9dc68c5ca14aa660b26b5f47fd9cd726a18ec372c6ff91e764736f6c634300081c0033",
  "linkReferences": {},
  "deployedLinkReferences": {}
}