{
  "_format": "hh-sol-artifact-1",
  "contractName": "AIEscrowMarketplace",
  "sourceName": "contracts/AIEscrowMarketplace.sol",
  "abi": [
    {
      "inputs": [
        {
          "internalType": "address",
          "name": "_initialAiAgentAddress",
          "type": "address"
        }
      ],
      "stateMutability": "nonpayable",
      "type": "constructor"
    },
    {
      "inputs": [
        {
          "internalType": "address",
          "name": "owner",
          "type": "address"
        }
      ],
      "name": "OwnableInvalidOwner",
      "type": "error"
    },
    {
      "inputs": [
        {
          "internalType": "address",
          "name": "account",
          "type": "address"
        }
      ],
      "name": "OwnableUnauthorizedAccount",
      "type": "error"
    },
    {
      "inputs": [],
      "name": "ReentrancyGuardReentrantCall",
      "type": "error"
    },
    {
      "anonymous": false,
      "inputs": [
        {
          "indexed": true,
          "internalType": "address",
          "name": "newAddress",
          "type": "address"
        }
      ],
      "name": "AiAgentAddressUpdated",
      "type": "event"
    },
    {
      "anonymous": false,
      "inputs": [
        {
          "indexed": true,
          "internalType": "uint256",
          "name": "jobId",
          "type": "uint256"
        },
        {
          "indexed": false,
          "internalType": "uint256",
          "name": "amount",
          "type": "uint256"
        }
      ],
      "name": "FundsDeposited",
      "type": "event"
    },
    {
      "anonymous": false,
      "inputs": [
        {
          "indexed": true,
          "internalType": "uint256",
          "name": "jobId",
          "type": "uint256"
        },
        {
          "indexed": true,
          "internalType": "address",
          "name": "recipient",
          "type": "address"
        },
        {
          "indexed": false,
          "internalType": "uint256",
          "name": "amount",
          "type": "uint256"
        }
      ],
      "name": "FundsReleased",
      "type": "event"
    },
    {
      "anonymous": false,
      "inputs": [
        {
          "indexed": true,
          "internalType": "uint256",
          "name": "jobId",
          "type": "uint256"
        },
        {
          "indexed": true,
          "internalType": "address",
          "name": "client",
          "type": "address"
        },
        {
          "indexed": true,
          "internalType": "address",
          "name": "freelancer",
          "type": "address"
        },
        {
          "indexed": false,
          "internalType": "uint256",
          "name": "amount",
          "type": "uint256"
        }
      ],
      "name": "JobCreated",
      "type": "event"
    },
    {
      "anonymous": false,
      "inputs": [
        {
          "indexed": true,
          "internalType": "address",
          "name": "previousOwner",
          "type": "address"
        },
        {
          "indexed": true,
          "internalType": "address",
          "name": "newOwner",
          "type": "address"
        }
      ],
      "name": "OwnershipTransferred",
      "type": "event"
    },
    {
      "anonymous": false,
      "inputs": [
        {
          "indexed": true,
          "internalType": "uint256",
          "name": "jobId",
          "type": "uint256"
        },
        {
          "indexed": true,
          "internalType": "address",
          "name": "freelancer",
          "type": "address"
        },
        {
          "indexed": false,
          "internalType": "string",
          "name": "resultIPFSHash",
          "type": "string"
        }
      ],
      "name": "WorkSubmitted",
      "type": "event"
    },
    {
      "anonymous": false,
      "inputs": [
        {
          "indexed": true,
          "internalType": "uint256",
          "name": "jobId",
          "type": "uint256"
        },
        {
          "indexed": false,
          "internalType": "bool",
          "name": "isApproved",
          "type": "bool"
        }
      ],
      "name": "WorkVerified",
      "type": "event"
    },
    {
      "inputs": [],
      "name": "aiAgentAddress",
      "outputs": [
        {
          "internalType": "address",
          "name": "",
          "type": "address"
        }
      ],
      "stateMutability": "view",
      "type": "function"
    },
    {
      "inputs": [
        {
          "internalType": "address payable",
          "name": "_freelancer",
          "type": "address"
        },
        {
          "internalType": "uint256",
          "name": "_amount",
          "type": "uint256"
        },
        {
          "internalType": "string",
          "name": "_workDescriptionIPFSHash",
          "type": "string"
        }
      ],
      "name": "createJob",
      "outputs": [],
      "stateMutability": "nonpayable",
      "type": "function"
    },
    {
      "inputs": [
        {
          "internalType": "uint256",
          "name": "_jobId",
          "type": "uint256"
        }
      ],
      "name": "depositFunds",
      "outputs": [],
      "stateMutability": "payable",
      "type": "function"
    },
    {
      "inputs": [
        {
          "internalType": "uint256",
          "name": "",
          "type": "uint256"
        }
      ],
      "name": "jobs",
      "outputs": [
        {
          "internalType": "address payable",
          "name": "client",
          "type": "address"
        },
        {
          "internalType": "address payable",
          "name": "freelancer",
          "type": "address"
        },
        {
          "internalType": "uint256",
          "name": "amount",
          "type": "uint256"
        },
        {
          "internalType": "string",
          "name": "workDescriptionIPFSHash",
          "type": "string"
        },
        {
          "internalType": "string",
          "name": "resultIPFSHash",
          "type": "string"
        },
        {
          "internalType": "enum AIEscrowMarketplace.Status",
          "name": "status",
          "type": "uint8"
        }
      ],
      "stateMutability": "view",
      "type": "function"
    },
    {
      "inputs": [],
      "name": "nextJobId",
      "outputs": [
        {
          "internalType": "uint256",
          "name": "",
          "type": "uint256"
        }
      ],
      "stateMutability": "view",
      "type": "function"
    },
    {
      "inputs": [],
      "name": "owner",
      "outputs": [
        {
          "internalType": "address",
          "name": "",
          "type": "address"
        }
      ],
      "stateMutability": "view",
      "type": "function"
    },
    {
      "inputs": [],
      "name": "renounceOwnership",
      "outputs": [],
      "stateMutability": "nonpayable",
      "type": "function"
    },
    {
      "inputs": [
        {
          "internalType": "address",
          "name": "_newAiAgentAddress",
          "type": "address"
        }
      ],
      "name": "setAiAgentAddress",
      "outputs": [],
      "stateMutability": "nonpayable",
      "type": "function"
    },
    {
      "inputs": [
        {
          "internalType": "uint256",
          "name": "_jobId",
          "type": "uint256"
        },
        {
          "internalType": "string",
          "name": "_resultIPFSHash",
          "type": "string"
        }
      ],
      "name": "submitWork",
      "outputs": [],
      "stateMutability": "nonpayable",
      "type": "function"
    },
    {
      "inputs": [
        {
          "internalType": "address",
          "name": "newOwner",
          "type": "address"
        }
      ],
      "name": "transferOwnership",
      "outputs": [],
      "stateMutability": "nonpayable",
      "type": "function"
    },
    {
      "inputs": [
        {
          "internalType": "uint256",
          "name": "_jobId",
          "type": "uint256"
        },
        {
          "internalType": "bool",
          "name": "_isApproved",
          "type": "bool"
        }
      ],
      "name": "verifyWork",
      "outputs": [],
      "stateMutability": "nonpayable",
      "type": "function"
    }
  ],
  "bytecode": "0x60806040523480156200001157600080fd5b5060405162002925380380620029258339818101604052810190620000379190620002f1565b33600073ffffffffffffffffffffffffffffffffffffffff168173ffffffffffffffffffffffffffffffffffffffff1603620000ad5760006040517f1e4fbdf7000000000000000000000000000000000000000000000000000000008152600401620000a4919062000334565b60405180910390fd5b620000be81620001c360201b60201c565b5060018081905550600073ffffffffffffffffffffffffffffffffffffffff168173ffffffffffffffffffffffffffffffffffffffff160362000138576040517f08c379a00000000000000000000000000000000000000000000000000000000081526004016200012f90620003d8565b60405180910390fd5b80600260006101000a81548173ffffffffffffffffffffffffffffffffffffffff021916908373ffffffffffffffffffffffffffffffffffffffff1602179055508073ffffffffffffffffffffffffffffffffffffffff167f34021934f0cf6727b5f943c90bd812148be4c61aeeb3c4cdc494a10a7c55db8a60405160405180910390a250620003fa565b60008060009054906101000a900473ffffffffffffffffffffffffffffffffffffffff169050816000806101000a81548173ffffffffffffffffffffffffffffffffffffffff021916908373ffffffffffffffffffffffffffffffffffffffff1602179055508173ffffffffffffffffffffffffffffffffffffffff168173ffffffffffffffffffffffffffffffffffffffff167f8be0079c531659141344cd1fd0a4f28419497f9722a3daafe3b4186f6b6457e060405160405180910390a35050565b600080fd5b600073ffffffffffffffffffffffffffffffffffffffff82169050919050565b6000620002b9826200028c565b9050919050565b620002cb81620002ac565b8114620002d757600080fd5b50565b600081519050620002eb81620002c0565b92915050565b6000602082840312156200030a576200030962000287565b5b60006200031a84828501620002da565b91505092915050565b6200032e81620002ac565b82525050565b60006020820190506200034b600083018462000323565b92915050565b600082825260208201905092915050565b7f4149457363726f773a20496e697469616c204149204167656e7420616464726560008201527f73732063616e6e6f7420626520746865207a65726f2061646472657373000000602082015250565b6000620003c0603d8362000351565b9150620003cd8262000362565b604082019050919050565b60006020820190508181036000830152620003f381620003b1565b9050919050565b61251b806200040a6000396000f3fe60806040526004361061009c5760003560e01c80638da5cb5b116100645780638da5cb5b14610168578063b0c2aa5e14610193578063da8accf9146101be578063e8f16259146101e7578063f2fde38b14610210578063fb29d20a146102395761009c565b8063180aedf3146100a15780633b76594d146100e3578063655e609a146100ff578063715018a614610128578063848fbf4d1461013f575b600080fd5b3480156100ad57600080fd5b506100c860048036038101906100c39190611473565b610264565b6040516100da969594939291906115f7565b60405180910390f35b6100fd60048036038101906100f89190611473565b6103fd565b005b34801561010b57600080fd5b50610126600480360381019061012191906116a4565b6106ac565b005b34801561013457600080fd5b5061013d6107aa565b005b34801561014b57600080fd5b5061016660048036038101906101619190611709565b6107be565b005b34801561017457600080fd5b5061017d6109af565b60405161018a9190611758565b60405180910390f35b34801561019f57600080fd5b506101a86109d8565b6040516101b59190611773565b60405180910390f35b3480156101ca57600080fd5b506101e560048036038101906101e091906118c3565b6109de565b005b3480156101f357600080fd5b5061020e6004803603810190610209919061194b565b610cc9565b005b34801561021c57600080fd5b50610237600480360381019061023291906116a4565b610fcf565b005b34801561024557600080fd5b5061024e611055565b60405161025b9190611758565b60405180910390f35b60046020528060005260406000206000915090508060000160009054906101000a900473ffffffffffffffffffffffffffffffffffffffff16908060010160009054906101000a900473ffffffffffffffffffffffffffffffffffffffff16908060020154908060030180546102d9906119e9565b80601f0160208091040260200160405190810160405280929190818152602001828054610305906119e9565b80156103525780601f1061032757610100808354040283529160200191610352565b820191906000526020600020905b81548152906001019060200180831161033557829003601f168201915b505050505090806004018054610367906119e9565b80601f0160208091040260200160405190810160405280929190818152602001828054610393906119e9565b80156103e05780601f106103b5576101008083540402835291602001916103e0565b820191906000526020600020905b8154815290600101906020018083116103c357829003601f168201915b5050505050908060050160009054906101000a900460ff16905086565b61040561107b565b80600073ffffffffffffffffffffffffffffffffffffffff166004600083815260200190815260200160002060000160009054906101000a900473ffffffffffffffffffffffffffffffffffffffff1673ffffffffffffffffffffffffffffffffffffffff16036104ab576040517f08c379a00000000000000000000000000000000000000000000000000000000081526004016104a290611a66565b60405180910390fd5b6004600082815260200190815260200160002060000160009054906101000a900473ffffffffffffffffffffffffffffffffffffffff1673ffffffffffffffffffffffffffffffffffffffff163373ffffffffffffffffffffffffffffffffffffffff161461054f576040517f08c379a000000000000000000000000000000000000000000000000000000000815260040161054690611af8565b60405180910390fd5b81600080600581111561056557610564611580565b5b6004600084815260200190815260200160002060050160009054906101000a900460ff16600581111561059b5761059a611580565b5b146105db576040517f08c379a00000000000000000000000000000000000000000000000000000000081526004016105d290611b8a565b60405180910390fd5b600060046000868152602001908152602001600020905080600201543414610638576040517f08c379a000000000000000000000000000000000000000000000000000000000815260040161062f90611c1c565b60405180910390fd5b60018160050160006101000a81548160ff021916908360058111156106605761065f611580565b5b0217905550847f26679fa1f3868c950e9362f1106cf73f3318de0280e0411a3c68e4b463eadd4f346040516106959190611773565b60405180910390a2505050506106a96110c1565b50565b6106b46110ca565b600073ffffffffffffffffffffffffffffffffffffffff168173ffffffffffffffffffffffffffffffffffffffff1603610723576040517f08c379a000000000000000000000000000000000000000000000000000000000815260040161071a90611cae565b60405180910390fd5b80600260006101000a81548173ffffffffffffffffffffffffffffffffffffffff021916908373ffffffffffffffffffffffffffffffffffffffff1602179055508073ffffffffffffffffffffffffffffffffffffffff167f34021934f0cf6727b5f943c90bd812148be4c61aeeb3c4cdc494a10a7c55db8a60405160405180910390a250565b6107b26110ca565b6107bc6000611151565b565b6107c661107b565b600260009054906101000a900473ffffffffffffffffffffffffffffffffffffffff1673ffffffffffffffffffffffffffffffffffffffff163373ffffffffffffffffffffffffffffffffffffffff1614610856576040517f08c379a000000000000000000000000000000000000000000000000000000000815260040161084d90611d40565b60405180910390fd5b81600280600581111561086c5761086b611580565b5b6004600084815260200190815260200160002060050160009054906101000a900460ff1660058111156108a2576108a1611580565b5b146108e2576040517f08c379a00000000000000000000000000000000000000000000000000000000081526004016108d990611b8a565b60405180910390fd5b600060046000868152602001908152602001600020905060038160050160006101000a81548160ff0219169083600581111561092157610920611580565b5b0217905550847f99e0637541c51fd0c0f300bd6a86ad85fd1eef21767dc2f6546e4c000d9f0665856040516109569190611d6f565b60405180910390a283156109725761096d85611215565b6109a0565b60058160050160006101000a81548160ff0219169083600581111561099a57610999611580565b5b02179055505b5050506109ab6110c1565b5050565b60008060009054906101000a900473ffffffffffffffffffffffffffffffffffffffff16905090565b60035481565b81600073ffffffffffffffffffffffffffffffffffffffff166004600083815260200190815260200160002060010160009054906101000a900473ffffffffffffffffffffffffffffffffffffffff1673ffffffffffffffffffffffffffffffffffffffff1603610a84576040517f08c379a0000000000000000000000000000000000000000000000000000000008152600401610a7b90611a66565b60405180910390fd5b6004600082815260200190815260200160002060010160009054906101000a900473ffffffffffffffffffffffffffffffffffffffff1673ffffffffffffffffffffffffffffffffffffffff163373ffffffffffffffffffffffffffffffffffffffff1614610b28576040517f08c379a0000000000000000000000000000000000000000000000000000000008152600401610b1f90611dfc565b60405180910390fd5b826001806005811115610b3e57610b3d611580565b5b6004600084815260200190815260200160002060050160009054906101000a900460ff166005811115610b7457610b73611580565b5b14610bb4576040517f08c379a0000000000000000000000000000000000000000000000000000000008152600401610bab90611b8a565b60405180910390fd5b6000845111610bf8576040517f08c379a0000000000000000000000000000000000000000000000000000000008152600401610bef90611e8e565b60405180910390fd5b600060046000878152602001908152602001600020905084816004019081610c20919061205a565b5060028160050160006101000a81548160ff02191690836005811115610c4957610c48611580565b5b02179055508060010160009054906101000a900473ffffffffffffffffffffffffffffffffffffffff1673ffffffffffffffffffffffffffffffffffffffff16867fd5d9bc882dc95f198786a74e52a0b87e49a07c80921b74821ba374339e394d3087604051610cb9919061212c565b60405180910390a3505050505050565b600073ffffffffffffffffffffffffffffffffffffffff168373ffffffffffffffffffffffffffffffffffffffff1603610d38576040517f08c379a0000000000000000000000000000000000000000000000000000000008152600401610d2f906121c0565b60405180910390fd5b60008211610d7b576040517f08c379a0000000000000000000000000000000000000000000000000000000008152600401610d7290612252565b60405180910390fd5b6000815111610dbf576040517f08c379a0000000000000000000000000000000000000000000000000000000008152600401610db6906122e4565b60405180910390fd5b600060035490506040518060c001604052803373ffffffffffffffffffffffffffffffffffffffff1681526020018573ffffffffffffffffffffffffffffffffffffffff16815260200184815260200183815260200160405180602001604052806000815250815260200160006005811115610e3e57610e3d611580565b5b8152506004600083815260200190815260200160002060008201518160000160006101000a81548173ffffffffffffffffffffffffffffffffffffffff021916908373ffffffffffffffffffffffffffffffffffffffff16021790555060208201518160010160006101000a81548173ffffffffffffffffffffffffffffffffffffffff021916908373ffffffffffffffffffffffffffffffffffffffff160217905550604082015181600201556060820151816003019081610f01919061205a565b506080820151816004019081610f17919061205a565b5060a08201518160050160006101000a81548160ff02191690836005811115610f4357610f42611580565b5b021790555090505060036000815480929190610f5e90612333565b91905055508373ffffffffffffffffffffffffffffffffffffffff163373ffffffffffffffffffffffffffffffffffffffff16827f8f4ee83cefe0dfb2f73fe6057bfa5b233fc43358bbb5f5606f444cbd4c5c4f8c86604051610fc19190611773565b60405180910390a450505050565b610fd76110ca565b600073ffffffffffffffffffffffffffffffffffffffff168173ffffffffffffffffffffffffffffffffffffffff16036110495760006040517f1e4fbdf70000000000000000000000000000000000000000000000000000000081526004016110409190611758565b60405180910390fd5b61105281611151565b50565b600260009054906101000a900473ffffffffffffffffffffffffffffffffffffffff1681565b6002600154036110b7576040517f3ee5aeb500000000000000000000000000000000000000000000000000000000815260040160405180910390fd5b6002600181905550565b60018081905550565b6110d2611421565b73ffffffffffffffffffffffffffffffffffffffff166110f06109af565b73ffffffffffffffffffffffffffffffffffffffff161461114f57611113611421565b6040517f118cdaa70000000000000000000000000000000000000000000000000000000081526004016111469190611758565b60405180910390fd5b565b60008060009054906101000a900473ffffffffffffffffffffffffffffffffffffffff169050816000806101000a81548173ffffffffffffffffffffffffffffffffffffffff021916908373ffffffffffffffffffffffffffffffffffffffff1602179055508173ffffffffffffffffffffffffffffffffffffffff168173ffffffffffffffffffffffffffffffffffffffff167f8be0079c531659141344cd1fd0a4f28419497f9722a3daafe3b4186f6b6457e060405160405180910390a35050565b6000600460008381526020019081526020016000209050600360058111156112405761123f611580565b5b8160050160009054906101000a900460ff16600581111561126457611263611580565b5b146112a4576040517f08c379a000000000000000000000000000000000000000000000000000000000815260040161129b906123ed565b60405180910390fd5b60048160050160006101000a81548160ff021916908360058111156112cc576112cb611580565b5b021790555060008160010160009054906101000a900473ffffffffffffffffffffffffffffffffffffffff1673ffffffffffffffffffffffffffffffffffffffff16826002015460405161131f9061243e565b60006040518083038185875af1925050503d806000811461135c576040519150601f19603f3d011682016040523d82523d6000602084013e611361565b606091505b50509050806113a5576040517f08c379a000000000000000000000000000000000000000000000000000000000815260040161139c906124c5565b60405180910390fd5b8160010160009054906101000a900473ffffffffffffffffffffffffffffffffffffffff1673ffffffffffffffffffffffffffffffffffffffff16837f6e3c6096795c8298a218b2cfb8bde42726ff7c9a3d27b4d3ba41ab7f74feb5fb84600201546040516114149190611773565b60405180910390a3505050565b600033905090565b6000604051905090565b600080fd5b600080fd5b6000819050919050565b6114508161143d565b811461145b57600080fd5b50565b60008135905061146d81611447565b92915050565b60006020828403121561148957611488611433565b5b60006114978482850161145e565b91505092915050565b600073ffffffffffffffffffffffffffffffffffffffff82169050919050565b60006114cb826114a0565b9050919050565b6114db816114c0565b82525050565b6114ea8161143d565b82525050565b600081519050919050565b600082825260208201905092915050565b60005b8381101561152a57808201518184015260208101905061150f565b60008484015250505050565b6000601f19601f8301169050919050565b6000611552826114f0565b61155c81856114fb565b935061156c81856020860161150c565b61157581611536565b840191505092915050565b7f4e487b7100000000000000000000000000000000000000000000000000000000600052602160045260246000fd5b600681106115c0576115bf611580565b5b50565b60008190506115d1826115af565b919050565b60006115e1826115c3565b9050919050565b6115f1816115d6565b82525050565b600060c08201905061160c60008301896114d2565b61161960208301886114d2565b61162660408301876114e1565b81810360608301526116388186611547565b9050818103608083015261164c8185611547565b905061165b60a08301846115e8565b979650505050505050565b6000611671826114a0565b9050919050565b61168181611666565b811461168c57600080fd5b50565b60008135905061169e81611678565b92915050565b6000602082840312156116ba576116b9611433565b5b60006116c88482850161168f565b91505092915050565b60008115159050919050565b6116e6816116d1565b81146116f157600080fd5b50565b600081359050611703816116dd565b92915050565b600080604083850312156117205761171f611433565b5b600061172e8582860161145e565b925050602061173f858286016116f4565b9150509250929050565b61175281611666565b82525050565b600060208201905061176d6000830184611749565b92915050565b600060208201905061178860008301846114e1565b92915050565b600080fd5b600080fd5b7f4e487b7100000000000000000000000000000000000000000000000000000000600052604160045260246000fd5b6117d082611536565b810181811067ffffffffffffffff821117156117ef576117ee611798565b5b80604052505050565b6000611802611429565b905061180e82826117c7565b919050565b600067ffffffffffffffff82111561182e5761182d611798565b5b61183782611536565b9050602081019050919050565b82818337600083830152505050565b600061186661186184611813565b6117f8565b90508281526020810184848401111561188257611881611793565b5b61188d848285611844565b509392505050565b600082601f8301126118aa576118a961178e565b5b81356118ba848260208601611853565b91505092915050565b600080604083850312156118da576118d9611433565b5b60006118e88582860161145e565b925050602083013567ffffffffffffffff81111561190957611908611438565b5b61191585828601611895565b9150509250929050565b611928816114c0565b811461193357600080fd5b50565b6000813590506119458161191f565b92915050565b60008060006060848603121561196457611963611433565b5b600061197286828701611936565b93505060206119838682870161145e565b925050604084013567ffffffffffffffff8111156119a4576119a3611438565b5b6119b086828701611895565b9150509250925092565b7f4e487b7100000000000000000000000000000000000000000000000000000000600052602260045260246000fd5b60006002820490506001821680611a0157607f821691505b602082108103611a1457611a136119ba565b5b50919050565b7f4149457363726f773a204a6f6220646f6573206e6f7420657869737400000000600082015250565b6000611a50601c836114fb565b9150611a5b82611a1a565b602082019050919050565b60006020820190508181036000830152611a7f81611a43565b9050919050565b7f4149457363726f773a2043616c6c6572206973206e6f7420746865206a6f622060008201527f636c69656e740000000000000000000000000000000000000000000000000000602082015250565b6000611ae26026836114fb565b9150611aed82611a86565b604082019050919050565b60006020820190508181036000830152611b1181611ad5565b9050919050565b7f4149457363726f773a204a6f62206973206e6f7420696e20746865207265717560008201527f6972656420737461747573000000000000000000000000000000000000000000602082015250565b6000611b74602b836114fb565b9150611b7f82611b18565b604082019050919050565b60006020820190508181036000830152611ba381611b67565b9050919050565b7f4149457363726f773a20496e636f7272656374206465706f73697420616d6f7560008201527f6e74000000000000000000000000000000000000000000000000000000000000602082015250565b6000611c066022836114fb565b9150611c1182611baa565b604082019050919050565b60006020820190508181036000830152611c3581611bf9565b9050919050565b7f4149457363726f773a204e6577204149204167656e742061646472657373206360008201527f616e6e6f7420626520746865207a65726f206164647265737300000000000000602082015250565b6000611c986039836114fb565b9150611ca382611c3c565b604082019050919050565b60006020820190508181036000830152611cc781611c8b565b9050919050565b7f4149457363726f773a2043616c6c6572206973206e6f7420746865204149204160008201527f67656e7400000000000000000000000000000000000000000000000000000000602082015250565b6000611d2a6024836114fb565b9150611d3582611cce565b604082019050919050565b60006020820190508181036000830152611d5981611d1d565b9050919050565b611d69816116d1565b82525050565b6000602082019050611d846000830184611d60565b92915050565b7f4149457363726f773a2043616c6c6572206973206e6f7420746865206a6f622060008201527f667265656c616e63657200000000000000000000000000000000000000000000602082015250565b6000611de6602a836114fb565b9150611df182611d8a565b604082019050919050565b60006020820190508181036000830152611e1581611dd9565b9050919050565b7f4149457363726f773a20526573756c74204950465320686173682063616e6e6f60008201527f7420626520656d70747900000000000000000000000000000000000000000000602082015250565b6000611e78602a836114fb565b9150611e8382611e1c565b604082019050919050565b60006020820190508181036000830152611ea781611e6b565b9050919050565b60008190508160005260206000209050919050565b60006020601f8301049050919050565b600082821b905092915050565b600060088302611f107fffffffffffffffffffffffffffffffffffffffffffffffffffffffffffffffff82611ed3565b611f1a8683611ed3565b95508019841693508086168417925050509392505050565b6000819050919050565b6000611f57611f52611f4d8461143d565b611f32565b61143d565b9050919050565b6000819050919050565b611f7183611f3c565b611f85611f7d82611f5e565b848454611ee0565b825550505050565b600090565b611f9a611f8d565b611fa5818484611f68565b505050565b5b81811015611fc957611fbe600082611f92565b600181019050611fab565b5050565b601f82111561200e57611fdf81611eae565b611fe884611ec3565b81016020851015611ff7578190505b61200b61200385611ec3565b830182611faa565b50505b505050565b600082821c905092915050565b600061203160001984600802612013565b1980831691505092915050565b600061204a8383612020565b9150826002028217905092915050565b612063826114f0565b67ffffffffffffffff81111561207c5761207b611798565b5b61208682546119e9565b612091828285611fcd565b600060209050601f8311600181146120c457600084156120b2578287015190505b6120bc858261203e565b865550612124565b601f1984166120d286611eae565b60005b828110156120fa578489015182556001820191506020850194506020810190506120d5565b868310156121175784890151612113601f891682612020565b8355505b6001600288020188555050505b505050505050565b600060208201905081810360008301526121468184611547565b905092915050565b7f4149457363726f773a20496e76616c696420667265656c616e6365722061646460008201527f7265737300000000000000000000000000000000000000000000000000000000602082015250565b60006121aa6024836114fb565b91506121b58261214e565b604082019050919050565b600060208201905081810360008301526121d98161219d565b9050919050565b7f4149457363726f773a20416d6f756e74206d757374206265206772656174657260008201527f207468616e207a65726f00000000000000000000000000000000000000000000602082015250565b600061223c602a836114fb565b9150612247826121e0565b604082019050919050565b6000602082019050818103600083015261226b8161222f565b9050919050565b7f4149457363726f773a20576f726b206465736372697074696f6e20495046532060008201527f686173682063616e6e6f7420626520656d707479000000000000000000000000602082015250565b60006122ce6034836114fb565b91506122d982612272565b604082019050919050565b600060208201905081810360008301526122fd816122c1565b9050919050565b7f4e487b7100000000000000000000000000000000000000000000000000000000600052601160045260246000fd5b600061233e8261143d565b91507fffffffffffffffffffffffffffffffffffffffffffffffffffffffffffffffff82036123705761236f612304565b5b600182019050919050565b7f4149457363726f773a204a6f62206e6f7420696e20766572696669656420737460008201527f6174757320666f722066756e642072656c656173650000000000000000000000602082015250565b60006123d76035836114fb565b91506123e28261237b565b604082019050919050565b60006020820190508181036000830152612406816123ca565b9050919050565b600081905092915050565b50565b600061242860008361240d565b915061243382612418565b600082019050919050565b60006124498261241b565b9150819050919050565b7f4149457363726f773a204661696c656420746f2072656c656173652066756e6460008201527f7320746f20667265656c616e6365720000000000000000000000000000000000602082015250565b60006124af602f836114fb565b91506124ba82612453565b604082019050919050565b600060208201905081810360008301526124de816124a2565b905091905056fea2646970667358221220b7ede900beeaf8d1d92f306b93562c7280351c4369fd109435ade3871e03460d64736f6c63430008180033",
  "linkReferences": {},
  "deployedLinkReferences": {}
}